{
  "contractName": "TodoList",
  "abi": [
    {
      "inputs": [],
      "name": "createList",
      "outputs": [],
      "stateMutability": "nonpayable",
      "type": "function"
    },
    {
      "inputs": [],
      "name": "getAllListNames",
      "outputs": [
        {
          "internalType": "string",
          "name": "",
          "type": "string"
        }
      ],
      "stateMutability": "view",
      "type": "function"
    },
    {
      "inputs": [],
      "name": "getListItems",
      "outputs": [
        {
          "internalType": "string",
          "name": "",
          "type": "string"
        }
      ],
      "stateMutability": "view",
      "type": "function"
    },
    {
      "inputs": [],
      "name": "updateList",
      "outputs": [],
      "stateMutability": "nonpayable",
      "type": "function"
    }
  ],
  "bytecode": "0x608060405234801561001057600080fd5b50610210806100206000396000f3fe608060405234801561001057600080fd5b506004361061004c5760003560e01c80630fab4d25146100515780631ae9dba31461005b5780635d27ddb414610065578063b8b6b7a814610083575b600080fd5b6100596100a1565b005b6100636100a3565b005b61006d6100a5565b60405161007a9190610158565b60405180910390f35b61008b6100e2565b6040516100989190610158565b60405180910390f35b565b565b60606040518060400160405280600b81526020017f68656c6c6f20776f726c64000000000000000000000000000000000000000000815250905090565b60606040518060400160405280600b81526020017f68656c6c6f20776f726c64000000000000000000000000000000000000000000815250905090565b600061012a8261017a565b6101348185610185565b9350610144818560208601610196565b61014d816101c9565b840191505092915050565b60006020820190508181036000830152610172818461011f565b905092915050565b600081519050919050565b600082825260208201905092915050565b60005b838110156101b4578082015181840152602081019050610199565b838111156101c3576000848401525b50505050565b6000601f19601f830116905091905056fea26469706673582212202f47519990abb91eb608baed8264065dac0c62048cc43023e5e485fb3bb2a44264736f6c63430008070033",
  "immutableReferences": {},
  "source": "// SPDX-License-Identifier: MIT\r\npragma solidity ^0.8.0;\r\n\r\ncontract TodoList {\r\n  function createList() public {\r\n  }\r\n\r\n  function getAllListNames() public view returns (string memory) {\r\n    return \"hello world\";\r\n  }\r\n\r\n  function getListItems() public view returns (string memory) {\r\n    return \"hello world\";\r\n  }\r\n\r\n  function updateList() public {\r\n  }\r\n}",
  "sourcePath": "C:/Users/bguillen/Documents/sandbox/dapp-pocs/dmvp-projects/decentralized-todo-list/contracts/TodoList.sol",
  "compiler": {
    "name": "solc",
    "version": "0.8.7+commit.e28d00a7.Emscripten.clang"
  },
  "schemaVersion": "3.2.3",
  "updatedAt": "2021-08-24T13:54:37.206Z",
  "devdoc": {
    "kind": "dev",
    "methods": {},
    "version": 1
  },
  "userdoc": {
    "kind": "user",
    "methods": {},
    "version": 1
  }
}