{
  "contractName": "TodoList",
  "abi": [
    {
      "constant": false,
      "inputs": [
        {
          "internalType": "string",
          "name": "listName",
          "type": "string"
        }
      ],
      "name": "createList",
      "outputs": [],
      "payable": false,
      "stateMutability": "nonpayable",
      "type": "function"
    },
    {
      "constant": true,
      "inputs": [],
      "name": "getAllListNames",
      "outputs": [
        {
          "internalType": "string",
          "name": "lists",
          "type": "string"
        }
      ],
      "payable": false,
      "stateMutability": "view",
      "type": "function"
    },
    {
      "constant": true,
      "inputs": [
        {
          "internalType": "uint256",
          "name": "listIndex",
          "type": "uint256"
        }
      ],
      "name": "getListItems",
      "outputs": [
        {
          "internalType": "string",
          "name": "itemNames",
          "type": "string"
        },
        {
          "internalType": "bool[]",
          "name": "itemsChecked",
          "type": "bool[]"
        }
      ],
      "payable": false,
      "stateMutability": "view",
      "type": "function"
    },
    {
      "constant": false,
      "inputs": [
        {
          "internalType": "uint256",
          "name": "listIndex",
          "type": "uint256"
        },
        {
          "internalType": "string",
          "name": "items",
          "type": "string"
        },
        {
          "internalType": "bool[]",
          "name": "itemsChecked",
          "type": "bool[]"
        }
      ],
      "name": "updateList",
      "outputs": [],
      "payable": false,
      "stateMutability": "nonpayable",
      "type": "function"
    }
  ],
  "bytecode": "0x608060405234801561001057600080fd5b50610421806100206000396000f3fe608060405234801561001057600080fd5b506004361061004c5760003560e01c806355adb521146100515780635d27ddb414610140578063b8dcc68f146101c3578063e723805c1461027e575b600080fd5b61007d6004803603602081101561006757600080fd5b81019080803590602001909291905050506103d7565b604051808060200180602001838103835285818151815260200191508051906020019080838360005b838110156100c15780820151818401526020810190506100a6565b50505050905090810190601f1680156100ee5780820380516001836020036101000a031916815260200191505b50838103825284818151815260200191508051906020019060200280838360005b8381101561012a57808201518184015260208101905061010f565b5050505090500194505050505060405180910390f35b6101486103df565b6040518080602001828103825283818151815260200191508051906020019080838360005b8381101561018857808201518184015260208101905061016d565b50505050905090810190601f1680156101b55780820380516001836020036101000a031916815260200191505b509250505060405180910390f35b61027c600480360360208110156101d957600080fd5b81019080803590602001906401000000008111156101f657600080fd5b82018360208201111561020857600080fd5b8035906020019184600183028401116401000000008311171561022a57600080fd5b91908080601f016020809104026020016040519081016040528093929190818152602001838380828437600081840152601f19601f8201169050808301925050505050505091929192905050506103e4565b005b6103d56004803603606081101561029457600080fd5b8101908080359060200190929190803590602001906401000000008111156102bb57600080fd5b8201836020820111156102cd57600080fd5b803590602001918460018302840111640100000000831117156102ef57600080fd5b91908080601f016020809104026020016040519081016040528093929190818152602001838380828437600081840152601f19601f8201169050808301925050505050505091929192908035906020019064010000000081111561035257600080fd5b82018360208201111561036457600080fd5b8035906020019184602083028401116401000000008311171561038657600080fd5b919080806020026020016040519081016040528093929190818152602001838360200280828437600081840152601f19601f8201169050808301925050505050505091929192905050506103e7565b005b606080915091565b606090565b50565b50505056fea265627a7a723158204290b13cdbb1f519c865a3de00af3c1607c52d47dcf0bbbf8605f7eec752f28164736f6c63430005100032",
  "source": "pragma solidity >=0.4.21 <0.7.0;\r\n\r\ncontract TodoList {\r\n  function createList(string memory listName) public {\r\n  }\r\n\r\n  function getAllListNames() public view returns (string memory lists) {\r\n  }\r\n\r\n  function getListItems(uint listIndex) public view returns (string memory itemNames, bool[] memory itemsChecked) {\r\n  }\r\n\r\n  function updateList(uint listIndex, string memory items, bool[] memory itemsChecked) public {\r\n  }\r\n}",
  "sourcePath": "C:/Users/bguillen/Documents/sandbox/dapp-pocs/dmvp-projects/todo-list/contracts/TodoList.sol",
  "compiler": {
    "name": "solc",
    "version": "0.5.16+commit.9c3226ce.Emscripten.clang"
  },
  "schemaVersion": "3.2.3",
  "updatedAt": "2021-08-20T17:06:25.384Z",
  "devdoc": {
    "methods": {}
  },
  "userdoc": {
    "methods": {}
  }
}