{
  "contractName": "TodoList",
  "abi": [
    {
      "anonymous": false,
      "inputs": [
        {
          "indexed": false,
          "internalType": "string",
          "name": "name",
          "type": "string"
        }
      ],
      "name": "ListCreated",
      "type": "event"
    },
    {
      "anonymous": false,
      "inputs": [
        {
          "indexed": false,
          "internalType": "string",
          "name": "name",
          "type": "string"
        }
      ],
      "name": "ListUpdated",
      "type": "event"
    },
    {
      "inputs": [
        {
          "internalType": "string",
          "name": "listName",
          "type": "string"
        }
      ],
      "name": "createList",
      "outputs": [],
      "stateMutability": "nonpayable",
      "type": "function"
    },
    {
      "inputs": [],
      "name": "getAllListNames",
      "outputs": [
        {
          "internalType": "string[]",
          "name": "",
          "type": "string[]"
        }
      ],
      "stateMutability": "view",
      "type": "function",
      "constant": true
    },
    {
      "inputs": [
        {
          "internalType": "string",
          "name": "listName",
          "type": "string"
        },
        {
          "components": [
            {
              "internalType": "string",
              "name": "name",
              "type": "string"
            },
            {
              "internalType": "bool",
              "name": "checked",
              "type": "bool"
            }
          ],
          "internalType": "struct TodoList.Item[]",
          "name": "items",
          "type": "tuple[]"
        }
      ],
      "name": "updateList",
      "outputs": [],
      "stateMutability": "nonpayable",
      "type": "function"
    },
    {
      "inputs": [
        {
          "internalType": "string",
          "name": "listName",
          "type": "string"
        }
      ],
      "name": "getListItems",
      "outputs": [
        {
          "components": [
            {
              "internalType": "string",
              "name": "name",
              "type": "string"
            },
            {
              "internalType": "bool",
              "name": "checked",
              "type": "bool"
            }
          ],
          "internalType": "struct TodoList.Item[]",
          "name": "",
          "type": "tuple[]"
        }
      ],
      "stateMutability": "view",
      "type": "function",
      "constant": true
    }
  ],
  "bytecode": "0x608060405234801561001057600080fd5b50610e8e806100206000396000f3fe608060405234801561001057600080fd5b506004361061004c5760003560e01c806359c75859146100515780635d27ddb414610081578063b8dcc68f1461009f578063f16cc801146100bb575b600080fd5b61006b600480360381019061006691906107ae565b6100d7565b6040516100789190610aa9565b60405180910390f35b610089610201565b6040516100969190610a87565b60405180910390f35b6100b960048036038101906100b491906107ae565b6102da565b005b6100d560048036038101906100d091906107f7565b610350565b005b60606001826040516100e99190610a70565b9081526020016040518091039020805480602002602001604051908101604052809291908181526020016000905b828210156101f6578382906000526020600020906002020160405180604001604052908160008201805461014a90610ca5565b80601f016020809104026020016040519081016040528092919081815260200182805461017690610ca5565b80156101c35780601f10610198576101008083540402835291602001916101c3565b820191906000526020600020905b8154815290600101906020018083116101a657829003601f168201915b505050505081526020016001820160009054906101000a900460ff16151515158152505081526020019060010190610117565b505050509050919050565b60606000805480602002602001604051908101604052809291908181526020016000905b828210156102d157838290600052602060002001805461024490610ca5565b80601f016020809104026020016040519081016040528092919081815260200182805461027090610ca5565b80156102bd5780601f10610292576101008083540402835291602001916102bd565b820191906000526020600020905b8154815290600101906020018083116102a057829003601f168201915b505050505081526020019060010190610225565b50505050905090565b600081908060018154018082558091505060019003906000526020600020016000909190919091509080519060200190610315929190610542565b507f3a034d392c7b1e79de586c80fa30fbf79ffb34beab74f35d75ae500ec4110138816040516103459190610acb565b60405180910390a150565b60006001836040516103629190610a70565b9081526020016040518091039020905061037a6105c8565b60005b83518110156105045783818151811061039957610398610daf565b5b60200260200101516000015182600001819052508381815181106103c0576103bf610daf565b5b602002602001015160200151826020019015159081151581525050600083805490501180156103ff5750600183805490506103fb9190610c19565b8111155b1561048657816000015183828154811061041c5761041b610daf565b5b90600052602060002090600202016000019080519060200190610440929190610542565b50816020015183828154811061045957610458610daf565b5b906000526020600020906002020160010160006101000a81548160ff0219169083151502179055506104f1565b8282908060018154018082558091505060019003906000526020600020906002020160009091909190915060008201518160000190805190602001906104cd929190610542565b5060208201518160010160006101000a81548160ff02191690831515021790555050505b80806104fc90610d08565b91505061037d565b507f366fb270101ef4aa68643984ae611bdef88429241b5dab77ed0df0c28cfaec02846040516105349190610acb565b60405180910390a150505050565b82805461054e90610ca5565b90600052602060002090601f01602090048101928261057057600085556105b7565b82601f1061058957805160ff19168380011785556105b7565b828001600101855582156105b7579182015b828111156105b657825182559160200191906001019061059b565b5b5090506105c491906105e4565b5090565b6040518060400160405280606081526020016000151581525090565b5b808211156105fd5760008160009055506001016105e5565b5090565b600061061461060f84610b12565b610aed565b9050808382526020820190508285602086028201111561063757610636610e1c565b5b60005b8581101561068557813567ffffffffffffffff81111561065d5761065c610e0d565b5b80860161066a8982610742565b8552602085019450602084019350505060018101905061063a565b5050509392505050565b60006106a261069d84610b3e565b610aed565b9050828152602081018484840111156106be576106bd610e21565b5b6106c9848285610c63565b509392505050565b600082601f8301126106e6576106e5610e0d565b5b81356106f6848260208601610601565b91505092915050565b60008135905061070e81610e41565b92915050565b600082601f83011261072957610728610e0d565b5b813561073984826020860161068f565b91505092915050565b60006040828403121561075857610757610e12565b5b6107626040610aed565b9050600082013567ffffffffffffffff81111561078257610781610e17565b5b61078e84828501610714565b60008301525060206107a2848285016106ff565b60208301525092915050565b6000602082840312156107c4576107c3610e2b565b5b600082013567ffffffffffffffff8111156107e2576107e1610e26565b5b6107ee84828501610714565b91505092915050565b6000806040838503121561080e5761080d610e2b565b5b600083013567ffffffffffffffff81111561082c5761082b610e26565b5b61083885828601610714565b925050602083013567ffffffffffffffff81111561085957610858610e26565b5b610865858286016106d1565b9150509250929050565b600061087b8383610990565b905092915050565b600061088f8383610a33565b905092915050565b60006108a282610b8f565b6108ac8185610bca565b9350836020820285016108be85610b6f565b8060005b858110156108fa57848403895281516108db858261086f565b94506108e683610bb0565b925060208a019950506001810190506108c2565b50829750879550505050505092915050565b600061091782610b9a565b6109218185610bdb565b93508360208202850161093385610b7f565b8060005b8581101561096f57848403895281516109508582610883565b945061095b83610bbd565b925060208a01995050600181019050610937565b50829750879550505050505092915050565b61098a81610c4d565b82525050565b600061099b82610ba5565b6109a58185610bec565b93506109b5818560208601610c72565b6109be81610e30565b840191505092915050565b60006109d482610ba5565b6109de8185610bfd565b93506109ee818560208601610c72565b6109f781610e30565b840191505092915050565b6000610a0d82610ba5565b610a178185610c0e565b9350610a27818560208601610c72565b80840191505092915050565b60006040830160008301518482036000860152610a508282610990565b9150506020830151610a656020860182610981565b508091505092915050565b6000610a7c8284610a02565b915081905092915050565b60006020820190508181036000830152610aa18184610897565b905092915050565b60006020820190508181036000830152610ac3818461090c565b905092915050565b60006020820190508181036000830152610ae581846109c9565b905092915050565b6000610af7610b08565b9050610b038282610cd7565b919050565b6000604051905090565b600067ffffffffffffffff821115610b2d57610b2c610dde565b5b602082029050602081019050919050565b600067ffffffffffffffff821115610b5957610b58610dde565b5b610b6282610e30565b9050602081019050919050565b6000819050602082019050919050565b6000819050602082019050919050565b600081519050919050565b600081519050919050565b600081519050919050565b6000602082019050919050565b6000602082019050919050565b600082825260208201905092915050565b600082825260208201905092915050565b600082825260208201905092915050565b600082825260208201905092915050565b600081905092915050565b6000610c2482610c59565b9150610c2f83610c59565b925082821015610c4257610c41610d51565b5b828203905092915050565b60008115159050919050565b6000819050919050565b82818337600083830152505050565b60005b83811015610c90578082015181840152602081019050610c75565b83811115610c9f576000848401525b50505050565b60006002820490506001821680610cbd57607f821691505b60208210811415610cd157610cd0610d80565b5b50919050565b610ce082610e30565b810181811067ffffffffffffffff82111715610cff57610cfe610dde565b5b80604052505050565b6000610d1382610c59565b91507fffffffffffffffffffffffffffffffffffffffffffffffffffffffffffffffff821415610d4657610d45610d51565b5b600182019050919050565b7f4e487b7100000000000000000000000000000000000000000000000000000000600052601160045260246000fd5b7f4e487b7100000000000000000000000000000000000000000000000000000000600052602260045260246000fd5b7f4e487b7100000000000000000000000000000000000000000000000000000000600052603260045260246000fd5b7f4e487b7100000000000000000000000000000000000000000000000000000000600052604160045260246000fd5b600080fd5b600080fd5b600080fd5b600080fd5b600080fd5b600080fd5b600080fd5b6000601f19601f8301169050919050565b610e4a81610c4d565b8114610e5557600080fd5b5056fea2646970667358221220cd93df4d21755f2b68d94954425ff7593cf797b5b216d3fb8cf7839fccf03e0764736f6c63430008070033",
  "immutableReferences": {},
  "source": "// SPDX-License-Identifier: MIT\r\npragma solidity ^0.8.0;\r\n\r\ncontract TodoList {\r\n\r\n  string[] lists;\r\n  mapping (string => Item[]) listItemsMap;\r\n  // [{name: 'Apple', checked: false}]\r\n\r\n  struct Item {\r\n    string name;\r\n    bool checked;\r\n  }\r\n\r\n  event ListCreated(string name);\r\n  event ListUpdated(string name);\r\n\r\n  function createList(string memory listName) public {\r\n    lists.push(listName);\r\n    emit ListCreated(listName);\r\n  }\r\n\r\n  function getAllListNames() public view returns (string[] memory) {\r\n    return lists;\r\n  }\r\n\r\n  function updateList(string memory listName, Item[] memory items) public {\r\n    Item[] storage currentItems = listItemsMap[listName];\r\n    Item memory item;\r\n\r\n    for (uint i = 0; i < items.length; i++) {\r\n      item.name = items[i].name;\r\n      item.checked = items[i].checked;\r\n      if (currentItems.length > 0 && i <= currentItems.length - 1) {\r\n        currentItems[i].name = item.name;\r\n        currentItems[i].checked = item.checked;\r\n      } else {\r\n        currentItems.push(item);\r\n      }\r\n    }\r\n\r\n    emit ListUpdated(listName);\r\n  }\r\n\r\n  function getListItems(string memory listName) public view returns (Item[] memory) {\r\n    return listItemsMap[listName];\r\n  }\r\n}",
  "sourcePath": "C:/Users/bguillen/Documents/sandbox/dapp-pocs/dmvp-projects/video/decentralized-todo-list/contracts/TodoList.sol",
  "compiler": {
    "name": "solc",
    "version": "0.8.7+commit.e28d00a7.Emscripten.clang"
  },
  "schemaVersion": "3.2.3",
  "updatedAt": "2021-08-24T22:33:21.491Z",
  "networkType": "ethereum",
  "devdoc": {
    "kind": "dev",
    "methods": {},
    "version": 1
  },
  "userdoc": {
    "kind": "user",
    "methods": {},
    "version": 1
  }
}